{
  "_format": "hh-sol-artifact-1",
  "contractName": "RealEstateMarketplace",
  "sourceName": "contracts/RealEstateNFT.sol",
  "abi": [
    {
      "inputs": [],
      "stateMutability": "nonpayable",
      "type": "constructor"
    },
    {
      "inputs": [
        {
          "internalType": "address",
          "name": "sender",
          "type": "address"
        },
        {
          "internalType": "uint256",
          "name": "tokenId",
          "type": "uint256"
        },
        {
          "internalType": "address",
          "name": "owner",
          "type": "address"
        }
      ],
      "name": "ERC721IncorrectOwner",
      "type": "error"
    },
    {
      "inputs": [
        {
          "internalType": "address",
          "name": "operator",
          "type": "address"
        },
        {
          "internalType": "uint256",
          "name": "tokenId",
          "type": "uint256"
        }
      ],
      "name": "ERC721InsufficientApproval",
      "type": "error"
    },
    {
      "inputs": [
        {
          "internalType": "address",
          "name": "approver",
          "type": "address"
        }
      ],
      "name": "ERC721InvalidApprover",
      "type": "error"
    },
    {
      "inputs": [
        {
          "internalType": "address",
          "name": "operator",
          "type": "address"
        }
      ],
      "name": "ERC721InvalidOperator",
      "type": "error"
    },
    {
      "inputs": [
        {
          "internalType": "address",
          "name": "owner",
          "type": "address"
        }
      ],
      "name": "ERC721InvalidOwner",
      "type": "error"
    },
    {
      "inputs": [
        {
          "internalType": "address",
          "name": "receiver",
          "type": "address"
        }
      ],
      "name": "ERC721InvalidReceiver",
      "type": "error"
    },
    {
      "inputs": [
        {
          "internalType": "address",
          "name": "sender",
          "type": "address"
        }
      ],
      "name": "ERC721InvalidSender",
      "type": "error"
    },
    {
      "inputs": [
        {
          "internalType": "uint256",
          "name": "tokenId",
          "type": "uint256"
        }
      ],
      "name": "ERC721NonexistentToken",
      "type": "error"
    },
    {
      "inputs": [
        {
          "internalType": "address",
          "name": "owner",
          "type": "address"
        }
      ],
      "name": "OwnableInvalidOwner",
      "type": "error"
    },
    {
      "inputs": [
        {
          "internalType": "address",
          "name": "account",
          "type": "address"
        }
      ],
      "name": "OwnableUnauthorizedAccount",
      "type": "error"
    },
    {
      "inputs": [],
      "name": "ReentrancyGuardReentrantCall",
      "type": "error"
    },
    {
      "anonymous": false,
      "inputs": [
        {
          "indexed": true,
          "internalType": "address",
          "name": "owner",
          "type": "address"
        },
        {
          "indexed": true,
          "internalType": "address",
          "name": "approved",
          "type": "address"
        },
        {
          "indexed": true,
          "internalType": "uint256",
          "name": "tokenId",
          "type": "uint256"
        }
      ],
      "name": "Approval",
      "type": "event"
    },
    {
      "anonymous": false,
      "inputs": [
        {
          "indexed": true,
          "internalType": "address",
          "name": "owner",
          "type": "address"
        },
        {
          "indexed": true,
          "internalType": "address",
          "name": "operator",
          "type": "address"
        },
        {
          "indexed": false,
          "internalType": "bool",
          "name": "approved",
          "type": "bool"
        }
      ],
      "name": "ApprovalForAll",
      "type": "event"
    },
    {
      "anonymous": false,
      "inputs": [
        {
          "indexed": false,
          "internalType": "uint256",
          "name": "_fromTokenId",
          "type": "uint256"
        },
        {
          "indexed": false,
          "internalType": "uint256",
          "name": "_toTokenId",
          "type": "uint256"
        }
      ],
      "name": "BatchMetadataUpdate",
      "type": "event"
    },
    {
      "anonymous": false,
      "inputs": [
        {
          "indexed": true,
          "internalType": "uint256",
          "name": "propertyId",
          "type": "uint256"
        },
        {
          "indexed": false,
          "internalType": "uint256",
          "name": "oldPrice",
          "type": "uint256"
        },
        {
          "indexed": false,
          "internalType": "uint256",
          "name": "newPrice",
          "type": "uint256"
        }
      ],
      "name": "MarketPriceUpdated",
      "type": "event"
    },
    {
      "anonymous": false,
      "inputs": [
        {
          "indexed": false,
          "internalType": "uint256",
          "name": "_tokenId",
          "type": "uint256"
        }
      ],
      "name": "MetadataUpdate",
      "type": "event"
    },
    {
      "anonymous": false,
      "inputs": [
        {
          "indexed": true,
          "internalType": "address",
          "name": "previousOwner",
          "type": "address"
        },
        {
          "indexed": true,
          "internalType": "address",
          "name": "newOwner",
          "type": "address"
        }
      ],
      "name": "OwnershipTransferred",
      "type": "event"
    },
    {
      "anonymous": false,
      "inputs": [
        {
          "indexed": true,
          "internalType": "uint256",
          "name": "id",
          "type": "uint256"
        },
        {
          "indexed": true,
          "internalType": "address",
          "name": "owner",
          "type": "address"
        },
        {
          "indexed": false,
          "internalType": "uint256",
          "name": "pricePerShare",
          "type": "uint256"
        },
        {
          "indexed": false,
          "internalType": "uint256",
          "name": "totalShares",
          "type": "uint256"
        },
        {
          "indexed": false,
          "internalType": "string",
          "name": "metadataURI",
          "type": "string"
        }
      ],
      "name": "PropertyListed",
      "type": "event"
    },
    {
      "anonymous": false,
      "inputs": [
        {
          "indexed": true,
          "internalType": "uint256",
          "name": "listingId",
          "type": "uint256"
        },
        {
          "indexed": true,
          "internalType": "uint256",
          "name": "propertyId",
          "type": "uint256"
        },
        {
          "indexed": true,
          "internalType": "address",
          "name": "buyer",
          "type": "address"
        },
        {
          "indexed": false,
          "internalType": "address",
          "name": "seller",
          "type": "address"
        },
        {
          "indexed": false,
          "internalType": "uint256",
          "name": "shares",
          "type": "uint256"
        },
        {
          "indexed": false,
          "internalType": "uint256",
          "name": "pricePerShare",
          "type": "uint256"
        },
        {
          "indexed": false,
          "internalType": "uint256",
          "name": "newMarketPrice",
          "type": "uint256"
        }
      ],
      "name": "ResaleCompleted",
      "type": "event"
    },
    {
      "anonymous": false,
      "inputs": [
        {
          "indexed": true,
          "internalType": "uint256",
          "name": "listingId",
          "type": "uint256"
        }
      ],
      "name": "ResaleListingCancelled",
      "type": "event"
    },
    {
      "anonymous": false,
      "inputs": [
        {
          "indexed": true,
          "internalType": "uint256",
          "name": "listingId",
          "type": "uint256"
        },
        {
          "indexed": true,
          "internalType": "uint256",
          "name": "propertyId",
          "type": "uint256"
        },
        {
          "indexed": true,
          "internalType": "address",
          "name": "seller",
          "type": "address"
        },
        {
          "indexed": false,
          "internalType": "uint256",
          "name": "shares",
          "type": "uint256"
        },
        {
          "indexed": false,
          "internalType": "uint256",
          "name": "pricePerShare",
          "type": "uint256"
        }
      ],
      "name": "ResaleListingCreated",
      "type": "event"
    },
    {
      "anonymous": false,
      "inputs": [
        {
          "indexed": true,
          "internalType": "uint256",
          "name": "propertyId",
          "type": "uint256"
        },
        {
          "indexed": true,
          "internalType": "address",
          "name": "buyer",
          "type": "address"
        },
        {
          "indexed": false,
          "internalType": "uint256",
          "name": "shares",
          "type": "uint256"
        },
        {
          "indexed": false,
          "internalType": "uint256",
          "name": "amountSpent",
          "type": "uint256"
        },
        {
          "indexed": false,
          "internalType": "bool",
          "name": "isPrimaryPurchase",
          "type": "bool"
        }
      ],
      "name": "SharesPurchased",
      "type": "event"
    },
    {
      "anonymous": false,
      "inputs": [
        {
          "indexed": true,
          "internalType": "address",
          "name": "from",
          "type": "address"
        },
        {
          "indexed": true,
          "internalType": "address",
          "name": "to",
          "type": "address"
        },
        {
          "indexed": true,
          "internalType": "uint256",
          "name": "tokenId",
          "type": "uint256"
        }
      ],
      "name": "Transfer",
      "type": "event"
    },
    {
      "inputs": [],
      "name": "RESALE_HISTORY_SIZE",
      "outputs": [
        {
          "internalType": "uint256",
          "name": "",
          "type": "uint256"
        }
      ],
      "stateMutability": "view",
      "type": "function"
    },
    {
      "inputs": [
        {
          "internalType": "address",
          "name": "to",
          "type": "address"
        },
        {
          "internalType": "uint256",
          "name": "tokenId",
          "type": "uint256"
        }
      ],
      "name": "approve",
      "outputs": [],
      "stateMutability": "nonpayable",
      "type": "function"
    },
    {
      "inputs": [
        {
          "internalType": "address",
          "name": "owner",
          "type": "address"
        }
      ],
      "name": "balanceOf",
      "outputs": [
        {
          "internalType": "uint256",
          "name": "",
          "type": "uint256"
        }
      ],
      "stateMutability": "view",
      "type": "function"
    },
    {
      "inputs": [
        {
          "internalType": "uint256",
          "name": "_listingId",
          "type": "uint256"
        },
        {
          "internalType": "uint256",
          "name": "_sharesToBuy",
          "type": "uint256"
        }
      ],
      "name": "buyFromResale",
      "outputs": [],
      "stateMutability": "payable",
      "type": "function"
    },
    {
      "inputs": [
        {
          "internalType": "uint256",
          "name": "_propertyId",
          "type": "uint256"
        },
        {
          "internalType": "uint256",
          "name": "_sharesToBuy",
          "type": "uint256"
        }
      ],
      "name": "buyShares",
      "outputs": [],
      "stateMutability": "payable",
      "type": "function"
    },
    {
      "inputs": [
        {
          "internalType": "uint256",
          "name": "_listingId",
          "type": "uint256"
        }
      ],
      "name": "cancelResaleListing",
      "outputs": [],
      "stateMutability": "nonpayable",
      "type": "function"
    },
    {
      "inputs": [
        {
          "internalType": "uint256",
          "name": "_propertyId",
          "type": "uint256"
        }
      ],
      "name": "getActiveResaleListings",
      "outputs": [
        {
          "internalType": "uint256[]",
          "name": "",
          "type": "uint256[]"
        }
      ],
      "stateMutability": "view",
      "type": "function"
    },
    {
      "inputs": [
        {
          "internalType": "uint256",
          "name": "tokenId",
          "type": "uint256"
        }
      ],
      "name": "getApproved",
      "outputs": [
        {
          "internalType": "address",
          "name": "",
          "type": "address"
        }
      ],
      "stateMutability": "view",
      "type": "function"
    },
    {
      "inputs": [
        {
          "internalType": "uint256",
          "name": "_propertyId",
          "type": "uint256"
        }
      ],
      "name": "getAverageResalePrice",
      "outputs": [
        {
          "internalType": "uint256",
          "name": "",
          "type": "uint256"
        }
      ],
      "stateMutability": "view",
      "type": "function"
    },
    {
      "inputs": [
        {
          "internalType": "uint256",
          "name": "_propertyId",
          "type": "uint256"
        }
      ],
      "name": "getImpliedMarketValue",
      "outputs": [
        {
          "internalType": "uint256",
          "name": "",
          "type": "uint256"
        }
      ],
      "stateMutability": "view",
      "type": "function"
    },
    {
      "inputs": [
        {
          "internalType": "uint256",
          "name": "_propertyId",
          "type": "uint256"
        }
      ],
      "name": "getInitialPrice",
      "outputs": [
        {
          "internalType": "uint256",
          "name": "",
          "type": "uint256"
        }
      ],
      "stateMutability": "view",
      "type": "function"
    },
    {
      "inputs": [
        {
          "internalType": "uint256",
          "name": "_propertyId",
          "type": "uint256"
        }
      ],
      "name": "getMarketPrice",
      "outputs": [
        {
          "internalType": "uint256",
          "name": "",
          "type": "uint256"
        }
      ],
      "stateMutability": "view",
      "type": "function"
    },
    {
      "inputs": [
        {
          "internalType": "uint256",
          "name": "_propertyId",
          "type": "uint256"
        }
      ],
      "name": "getPropertyDetails",
      "outputs": [
        {
          "internalType": "uint256",
          "name": "id",
          "type": "uint256"
        },
        {
          "internalType": "uint256",
          "name": "initialPrice",
          "type": "uint256"
        },
        {
          "internalType": "uint256",
          "name": "currentPrice",
          "type": "uint256"
        },
        {
          "internalType": "uint256",
          "name": "totalShares",
          "type": "uint256"
        },
        {
          "internalType": "uint256",
          "name": "sharesSold",
          "type": "uint256"
        },
        {
          "internalType": "uint256",
          "name": "availableShares",
          "type": "uint256"
        },
        {
          "internalType": "address",
          "name": "owner",
          "type": "address"
        },
        {
          "internalType": "bool",
          "name": "isActive",
          "type": "bool"
        },
        {
          "internalType": "string",
          "name": "metadataURI",
          "type": "string"
        }
      ],
      "stateMutability": "view",
      "type": "function"
    },
    {
      "inputs": [
        {
          "internalType": "uint256",
          "name": "_propertyId",
          "type": "uint256"
        }
      ],
      "name": "getResaleCount",
      "outputs": [
        {
          "internalType": "uint256",
          "name": "",
          "type": "uint256"
        }
      ],
      "stateMutability": "view",
      "type": "function"
    },
    {
      "inputs": [
        {
          "internalType": "uint256",
          "name": "_propertyId",
          "type": "uint256"
        },
        {
          "internalType": "address",
          "name": "_user",
          "type": "address"
        }
      ],
      "name": "getUserShares",
      "outputs": [
        {
          "internalType": "uint256",
          "name": "",
          "type": "uint256"
        }
      ],
      "stateMutability": "view",
      "type": "function"
    },
    {
      "inputs": [
        {
          "internalType": "address",
          "name": "owner",
          "type": "address"
        },
        {
          "internalType": "address",
          "name": "operator",
          "type": "address"
        }
      ],
      "name": "isApprovedForAll",
      "outputs": [
        {
          "internalType": "bool",
          "name": "",
          "type": "bool"
        }
      ],
      "stateMutability": "view",
      "type": "function"
    },
    {
      "inputs": [
        {
          "internalType": "uint256",
          "name": "_pricePerShare",
          "type": "uint256"
        },
        {
          "internalType": "uint256",
          "name": "_totalShares",
          "type": "uint256"
        },
        {
          "internalType": "string",
          "name": "_tokenURI",
          "type": "string"
        }
      ],
      "name": "listProperty",
      "outputs": [],
      "stateMutability": "nonpayable",
      "type": "function"
    },
    {
      "inputs": [
        {
          "internalType": "uint256",
          "name": "_propertyId",
          "type": "uint256"
        },
        {
          "internalType": "uint256",
          "name": "_shares",
          "type": "uint256"
        },
        {
          "internalType": "uint256",
          "name": "_pricePerShare",
          "type": "uint256"
        }
      ],
      "name": "listSharesForResale",
      "outputs": [
        {
          "internalType": "uint256",
          "name": "",
          "type": "uint256"
        }
      ],
      "stateMutability": "nonpayable",
      "type": "function"
    },
    {
      "inputs": [],
      "name": "name",
      "outputs": [
        {
          "internalType": "string",
          "name": "",
          "type": "string"
        }
      ],
      "stateMutability": "view",
      "type": "function"
    },
    {
      "inputs": [],
      "name": "nextListingId",
      "outputs": [
        {
          "internalType": "uint256",
          "name": "",
          "type": "uint256"
        }
      ],
      "stateMutability": "view",
      "type": "function"
    },
    {
      "inputs": [],
      "name": "nextPropertyId",
      "outputs": [
        {
          "internalType": "uint256",
          "name": "",
          "type": "uint256"
        }
      ],
      "stateMutability": "view",
      "type": "function"
    },
    {
      "inputs": [],
      "name": "owner",
      "outputs": [
        {
          "internalType": "address",
          "name": "",
          "type": "address"
        }
      ],
      "stateMutability": "view",
      "type": "function"
    },
    {
      "inputs": [
        {
          "internalType": "uint256",
          "name": "tokenId",
          "type": "uint256"
        }
      ],
      "name": "ownerOf",
      "outputs": [
        {
          "internalType": "address",
          "name": "",
          "type": "address"
        }
      ],
      "stateMutability": "view",
      "type": "function"
    },
    {
      "inputs": [
        {
          "internalType": "uint256",
          "name": "",
          "type": "uint256"
        }
      ],
      "name": "properties",
      "outputs": [
        {
          "internalType": "uint256",
          "name": "id",
          "type": "uint256"
        },
        {
          "internalType": "uint256",
          "name": "initialPricePerShare",
          "type": "uint256"
        },
        {
          "internalType": "uint256",
          "name": "currentPrice",
          "type": "uint256"
        },
        {
          "internalType": "uint256",
          "name": "totalShares",
          "type": "uint256"
        },
        {
          "internalType": "uint256",
          "name": "sharesSold",
          "type": "uint256"
        },
        {
          "internalType": "address",
          "name": "owner",
          "type": "address"
        },
        {
          "internalType": "bool",
          "name": "isActive",
          "type": "bool"
        },
        {
          "internalType": "string",
          "name": "metadataURI",
          "type": "string"
        }
      ],
      "stateMutability": "view",
      "type": "function"
    },
    {
      "inputs": [
        {
          "internalType": "uint256",
          "name": "",
          "type": "uint256"
        },
        {
          "internalType": "uint256",
          "name": "",
          "type": "uint256"
        }
      ],
      "name": "propertyResaleListings",
      "outputs": [
        {
          "internalType": "uint256",
          "name": "",
          "type": "uint256"
        }
      ],
      "stateMutability": "view",
      "type": "function"
    },
    {
      "inputs": [],
      "name": "renounceOwnership",
      "outputs": [],
      "stateMutability": "nonpayable",
      "type": "function"
    },
    {
      "inputs": [
        {
          "internalType": "uint256",
          "name": "",
          "type": "uint256"
        }
      ],
      "name": "resaleListings",
      "outputs": [
        {
          "internalType": "uint256",
          "name": "listingId",
          "type": "uint256"
        },
        {
          "internalType": "uint256",
          "name": "propertyId",
          "type": "uint256"
        },
        {
          "internalType": "address",
          "name": "seller",
          "type": "address"
        },
        {
          "internalType": "uint256",
          "name": "sharesForSale",
          "type": "uint256"
        },
        {
          "internalType": "uint256",
          "name": "pricePerShare",
          "type": "uint256"
        },
        {
          "internalType": "uint256",
          "name": "sharesSold",
          "type": "uint256"
        },
        {
          "internalType": "bool",
          "name": "isActive",
          "type": "bool"
        },
        {
          "internalType": "uint256",
          "name": "createdAt",
          "type": "uint256"
        }
      ],
      "stateMutability": "view",
      "type": "function"
    },
    {
      "inputs": [
        {
          "internalType": "uint256",
          "name": "",
          "type": "uint256"
        },
        {
          "internalType": "uint256",
          "name": "",
          "type": "uint256"
        }
      ],
      "name": "resalePriceHistory",
      "outputs": [
        {
          "internalType": "uint256",
          "name": "",
          "type": "uint256"
        }
      ],
      "stateMutability": "view",
      "type": "function"
    },
    {
      "inputs": [
        {
          "internalType": "address",
          "name": "from",
          "type": "address"
        },
        {
          "internalType": "address",
          "name": "to",
          "type": "address"
        },
        {
          "internalType": "uint256",
          "name": "tokenId",
          "type": "uint256"
        }
      ],
      "name": "safeTransferFrom",
      "outputs": [],
      "stateMutability": "nonpayable",
      "type": "function"
    },
    {
      "inputs": [
        {
          "internalType": "address",
          "name": "from",
          "type": "address"
        },
        {
          "internalType": "address",
          "name": "to",
          "type": "address"
        },
        {
          "internalType": "uint256",
          "name": "tokenId",
          "type": "uint256"
        },
        {
          "internalType": "bytes",
          "name": "data",
          "type": "bytes"
        }
      ],
      "name": "safeTransferFrom",
      "outputs": [],
      "stateMutability": "nonpayable",
      "type": "function"
    },
    {
      "inputs": [
        {
          "internalType": "address",
          "name": "operator",
          "type": "address"
        },
        {
          "internalType": "bool",
          "name": "approved",
          "type": "bool"
        }
      ],
      "name": "setApprovalForAll",
      "outputs": [],
      "stateMutability": "nonpayable",
      "type": "function"
    },
    {
      "inputs": [
        {
          "internalType": "bytes4",
          "name": "interfaceId",
          "type": "bytes4"
        }
      ],
      "name": "supportsInterface",
      "outputs": [
        {
          "internalType": "bool",
          "name": "",
          "type": "bool"
        }
      ],
      "stateMutability": "view",
      "type": "function"
    },
    {
      "inputs": [],
      "name": "symbol",
      "outputs": [
        {
          "internalType": "string",
          "name": "",
          "type": "string"
        }
      ],
      "stateMutability": "view",
      "type": "function"
    },
    {
      "inputs": [
        {
          "internalType": "uint256",
          "name": "tokenId",
          "type": "uint256"
        }
      ],
      "name": "tokenURI",
      "outputs": [
        {
          "internalType": "string",
          "name": "",
          "type": "string"
        }
      ],
      "stateMutability": "view",
      "type": "function"
    },
    {
      "inputs": [
        {
          "internalType": "address",
          "name": "from",
          "type": "address"
        },
        {
          "internalType": "address",
          "name": "to",
          "type": "address"
        },
        {
          "internalType": "uint256",
          "name": "tokenId",
          "type": "uint256"
        }
      ],
      "name": "transferFrom",
      "outputs": [],
      "stateMutability": "nonpayable",
      "type": "function"
    },
    {
      "inputs": [
        {
          "internalType": "address",
          "name": "newOwner",
          "type": "address"
        }
      ],
      "name": "transferOwnership",
      "outputs": [],
      "stateMutability": "nonpayable",
      "type": "function"
    },
    {
      "inputs": [
        {
          "internalType": "uint256",
          "name": "",
          "type": "uint256"
        },
        {
          "internalType": "address",
          "name": "",
          "type": "address"
        }
      ],
      "name": "userShares",
      "outputs": [
        {
          "internalType": "uint256",
          "name": "",
          "type": "uint256"
        }
      ],
      "stateMutability": "view",
      "type": "function"
    }
  ],
  "bytecode": "0x60806040523480156200001157600080fd5b50336040518060400160405280600f81526020017f5265616c457374617465546f6b656e00000000000000000000000000000000008152506040518060400160405280600381526020017f524554000000000000000000000000000000000000000000000000000000000081525081600090816200009091906200047a565b508060019081620000a291906200047a565b505050600073ffffffffffffffffffffffffffffffffffffffff168173ffffffffffffffffffffffffffffffffffffffff16036200011a5760006040517f1e4fbdf7000000000000000000000000000000000000000000000000000000008152600401620001119190620005a6565b60405180910390fd5b6200012b816200013a60201b60201c565b506001600881905550620005c3565b6000600760009054906101000a900473ffffffffffffffffffffffffffffffffffffffff16905081600760006101000a81548173ffffffffffffffffffffffffffffffffffffffff021916908373ffffffffffffffffffffffffffffffffffffffff1602179055508173ffffffffffffffffffffffffffffffffffffffff168173ffffffffffffffffffffffffffffffffffffffff167f8be0079c531659141344cd1fd0a4f28419497f9722a3daafe3b4186f6b6457e060405160405180910390a35050565b600081519050919050565b7f4e487b7100000000000000000000000000000000000000000000000000000000600052604160045260246000fd5b7f4e487b7100000000000000000000000000000000000000000000000000000000600052602260045260246000fd5b600060028204905060018216806200028257607f821691505b6020821081036200029857620002976200023a565b5b50919050565b60008190508160005260206000209050919050565b60006020601f8301049050919050565b600082821b905092915050565b600060088302620003027fffffffffffffffffffffffffffffffffffffffffffffffffffffffffffffffff82620002c3565b6200030e8683620002c3565b95508019841693508086168417925050509392505050565b6000819050919050565b6000819050919050565b60006200035b620003556200034f8462000326565b62000330565b62000326565b9050919050565b6000819050919050565b62000377836200033a565b6200038f620003868262000362565b848454620002d0565b825550505050565b600090565b620003a662000397565b620003b38184846200036c565b505050565b5b81811015620003db57620003cf6000826200039c565b600181019050620003b9565b5050565b601f8211156200042a57620003f4816200029e565b620003ff84620002b3565b810160208510156200040f578190505b620004276200041e85620002b3565b830182620003b8565b50505b505050565b600082821c905092915050565b60006200044f600019846008026200042f565b1980831691505092915050565b60006200046a83836200043c565b9150826002028217905092915050565b620004858262000200565b67ffffffffffffffff811115620004a157620004a06200020b565b5b620004ad825462000269565b620004ba828285620003df565b600060209050601f831160018114620004f25760008415620004dd578287015190505b620004e985826200045c565b86555062000559565b601f19841662000502866200029e565b60005b828110156200052c5784890151825560018201915060208501945060208101905062000505565b868310156200054c578489015162000548601f8916826200043c565b8355505b6001600288020188555050505b505050505050565b600073ffffffffffffffffffffffffffffffffffffffff82169050919050565b60006200058e8262000561565b9050919050565b620005a08162000581565b82525050565b6000602082019050620005bd600083018462000595565b92915050565b614e1180620005d36000396000f3fe60806040526004361061021a5760003560e01c8063737cd3c711610123578063aaccf1ec116100ab578063beebc5da1161006f578063beebc5da1461088f578063c87b56dd146108ab578063e985e9c5146108e8578063f2fde38b14610925578063f7b108081461094e5761021a565b8063aaccf1ec1461077d578063ad954878146107a8578063b238b52a146107e5578063b41b4bd414610822578063b88d4fde146108665761021a565b80638da5cb5b116100f25780638da5cb5b1461068457806393b38c71146106af57806395d89b41146106ec578063a22cb46514610717578063a3aa8bc2146107405761021a565b8063737cd3c7146105a257806380234404146105cd578063835dc40b1461060a5780638928378e146106475761021a565b806339500f34116101a65780635cec110c116101755780635cec110c146104975780636352211e146104d45780636cc9bdda1461051157806370a082311461054e578063715018a61461058b5761021a565b806339500f34146103dd578063422d01711461040857806342842e0e14610445578063461d33571461046e5761021a565b8063126dbe43116101ed578063126dbe43146102ed57806323b872dd1461033257806330cce5061461035b5780633312d3411461039857806338475934146103b45761021a565b806301ffc9a71461021f57806306fdde031461025c578063081812fc14610287578063095ea7b3146102c4575b600080fd5b34801561022b57600080fd5b506102466004803603810190610241919061377f565b610992565b60405161025391906137c7565b60405180910390f35b34801561026857600080fd5b506102716109f3565b60405161027e9190613872565b60405180910390f35b34801561029357600080fd5b506102ae60048036038101906102a991906138ca565b610a85565b6040516102bb9190613938565b60405180910390f35b3480156102d057600080fd5b506102eb60048036038101906102e6919061397f565b610aa1565b005b3480156102f957600080fd5b50610314600480360381019061030f91906138ca565b610ab7565b604051610329999897969594939291906139ce565b60405180910390f35b34801561033e57600080fd5b5061035960048036038101906103549190613a62565b610bf0565b005b34801561036757600080fd5b50610382600480360381019061037d91906138ca565b610cf2565b60405161038f9190613ab5565b60405180910390f35b6103b260048036038101906103ad9190613ad0565b610d12565b005b3480156103c057600080fd5b506103db60048036038101906103d691906138ca565b6111aa565b005b3480156103e957600080fd5b506103f2611376565b6040516103ff9190613ab5565b60405180910390f35b34801561041457600080fd5b5061042f600480360381019061042a91906138ca565b61137c565b60405161043c9190613ab5565b60405180910390f35b34801561045157600080fd5b5061046c60048036038101906104679190613a62565b61139c565b005b34801561047a57600080fd5b5061049560048036038101906104909190613b75565b6113bc565b005b3480156104a357600080fd5b506104be60048036038101906104b99190613be9565b61167a565b6040516104cb9190613ab5565b60405180910390f35b3480156104e057600080fd5b506104fb60048036038101906104f691906138ca565b6119be565b6040516105089190613938565b60405180910390f35b34801561051d57600080fd5b50610538600480360381019061053391906138ca565b6119d0565b6040516105459190613ab5565b60405180910390f35b34801561055a57600080fd5b5061057560048036038101906105709190613c3c565b611a04565b6040516105829190613ab5565b60405180910390f35b34801561059757600080fd5b506105a0611abe565b005b3480156105ae57600080fd5b506105b7611ad2565b6040516105c49190613ab5565b60405180910390f35b3480156105d957600080fd5b506105f460048036038101906105ef9190613ad0565b611ad7565b6040516106019190613ab5565b60405180910390f35b34801561061657600080fd5b50610631600480360381019061062c9190613c69565b611b08565b60405161063e9190613ab5565b60405180910390f35b34801561065357600080fd5b5061066e600480360381019061066991906138ca565b611b63565b60405161067b9190613ab5565b60405180910390f35b34801561069057600080fd5b50610699611b83565b6040516106a69190613938565b60405180910390f35b3480156106bb57600080fd5b506106d660048036038101906106d191906138ca565b611bad565b6040516106e39190613ab5565b60405180910390f35b3480156106f857600080fd5b50610701611c59565b60405161070e9190613872565b60405180910390f35b34801561072357600080fd5b5061073e60048036038101906107399190613cd5565b611ceb565b005b34801561074c57600080fd5b5061076760048036038101906107629190613ad0565b611d01565b6040516107749190613ab5565b60405180910390f35b34801561078957600080fd5b50610792611d32565b60405161079f9190613ab5565b60405180910390f35b3480156107b457600080fd5b506107cf60048036038101906107ca9190613c69565b611d38565b6040516107dc9190613ab5565b60405180910390f35b3480156107f157600080fd5b5061080c600480360381019061080791906138ca565b611d5d565b6040516108199190613dd3565b60405180910390f35b34801561082e57600080fd5b50610849600480360381019061084491906138ca565b611efe565b60405161085d989796959493929190613df5565b60405180910390f35b34801561087257600080fd5b5061088d60048036038101906108889190613fa3565b611f73565b005b6108a960048036038101906108a49190613ad0565b611f98565b005b3480156108b757600080fd5b506108d260048036038101906108cd91906138ca565b6122a8565b6040516108df9190613872565b60405180910390f35b3480156108f457600080fd5b5061090f600480360381019061090a9190614026565b6123bb565b60405161091c91906137c7565b60405180910390f35b34801561093157600080fd5b5061094c60048036038101906109479190613c3c565b61244f565b005b34801561095a57600080fd5b50610975600480360381019061097091906138ca565b6124d5565b604051610989989796959493929190614066565b60405180910390f35b6000634906490660e01b7bffffffffffffffffffffffffffffffffffffffffffffffffffffffff1916827bffffffffffffffffffffffffffffffffffffffffffffffffffffffff191614806109ec57506109eb826125d2565b5b9050919050565b606060008054610a029061411a565b80601f0160208091040260200160405190810160405280929190818152602001828054610a2e9061411a565b8015610a7b5780601f10610a5057610100808354040283529160200191610a7b565b820191906000526020600020905b815481529060010190602001808311610a5e57829003601f168201915b5050505050905090565b6000610a90826126b4565b50610a9a8261273c565b9050919050565b610ab38282610aae612779565b612781565b5050565b60008060008060008060008060606000600b60008c815260200190815260200160002090508060000154816001015482600201548360030154846004015485600401548660030154610b09919061417a565b8660050160009054906101000a900473ffffffffffffffffffffffffffffffffffffffff168760050160149054906101000a900460ff1688600601808054610b509061411a565b80601f0160208091040260200160405190810160405280929190818152602001828054610b7c9061411a565b8015610bc95780601f10610b9e57610100808354040283529160200191610bc9565b820191906000526020600020905b815481529060010190602001808311610bac57829003601f168201915b50505050509050995099509950995099509950995099509950509193959799909294969850565b600073ffffffffffffffffffffffffffffffffffffffff168273ffffffffffffffffffffffffffffffffffffffff1603610c625760006040517f64a0ae92000000000000000000000000000000000000000000000000000000008152600401610c599190613938565b60405180910390fd5b6000610c768383610c71612779565b612793565b90508373ffffffffffffffffffffffffffffffffffffffff168173ffffffffffffffffffffffffffffffffffffffff1614610cec578382826040517f64283d7b000000000000000000000000000000000000000000000000000000008152600401610ce3939291906141ae565b60405180910390fd5b50505050565b6000600f6000838152602001908152602001600020805490509050919050565b610d1a6129ad565b6000600d600084815260200190815260200160002090508060060160009054906101000a900460ff16610d82576040517f08c379a0000000000000000000000000000000000000000000000000000000008152600401610d7990614231565b60405180910390fd5b60008211610dc5576040517f08c379a0000000000000000000000000000000000000000000000000000000008152600401610dbc9061429d565b60405180910390fd5b8060020160009054906101000a900473ffffffffffffffffffffffffffffffffffffffff1673ffffffffffffffffffffffffffffffffffffffff163373ffffffffffffffffffffffffffffffffffffffff1603610e57576040517f08c379a0000000000000000000000000000000000000000000000000000000008152600401610e4e90614309565b60405180910390fd5b600081600501548260030154610e6d919061417a565b905080831115610eb2576040517f08c379a0000000000000000000000000000000000000000000000000000000008152600401610ea990614375565b60405180910390fd5b6000826004015484610ec49190614395565b905080341015610f09576040517f08c379a0000000000000000000000000000000000000000000000000000000008152600401610f0090614423565b60405180910390fd5b83600c60008560010154815260200190815260200160002060003373ffffffffffffffffffffffffffffffffffffffff1673ffffffffffffffffffffffffffffffffffffffff1681526020019081526020016000206000828254610f6d9190614443565b9250508190555083836005016000828254610f889190614443565b925050819055508260030154836005015410610fbc5760008360060160006101000a81548160ff0219169083151502179055505b6000600b600085600101548152602001908152602001600020905060008160020154905084600401548260020181905550610fff856001015486600401546129f3565b8460020160009054906101000a900473ffffffffffffffffffffffffffffffffffffffff1673ffffffffffffffffffffffffffffffffffffffff166108fc849081150290604051600060405180830381858888f19350505050158015611069573d6000803e3d6000fd5b50823411156110c5573373ffffffffffffffffffffffffffffffffffffffff166108fc8434611098919061417a565b9081150290604051600060405180830381858888f193505050501580156110c3573d6000803e3d6000fd5b505b3373ffffffffffffffffffffffffffffffffffffffff168560010154887f1efe35476e0aa252af3c2a67828c354e4a93d14dfb436f25d0635451a9c1e6b58860020160009054906101000a900473ffffffffffffffffffffffffffffffffffffffff168a8a6004015488600201546040516111439493929190614477565b60405180910390a4816002015481146111995784600101547f12a5d30e792424d49bdd4273ae090eba041b152a194d515fd2f133a90828525c8284600201546040516111909291906144bc565b60405180910390a25b50505050506111a6612ab5565b5050565b6000600d600083815260200190815260200160002090503373ffffffffffffffffffffffffffffffffffffffff168160020160009054906101000a900473ffffffffffffffffffffffffffffffffffffffff1673ffffffffffffffffffffffffffffffffffffffff1614611253576040517f08c379a000000000000000000000000000000000000000000000000000000000815260040161124a90614531565b60405180910390fd5b8060060160009054906101000a900460ff166112a4576040517f08c379a000000000000000000000000000000000000000000000000000000000815260040161129b90614231565b60405180910390fd5b6000816005015482600301546112ba919061417a565b905080600c60008460010154815260200190815260200160002060003373ffffffffffffffffffffffffffffffffffffffff1673ffffffffffffffffffffffffffffffffffffffff16815260200190815260200160002060008282546113209190614443565b9250508190555060008260060160006101000a81548160ff021916908315150217905550827f212a3ea78f7b74183daff7be4efb45638a8ef36d126a206d2fdcff79a8e33b9060405160405180910390a2505050565b60095481565b6000600b6000838152602001908152602001600020600101549050919050565b6113b783838360405180602001604052806000815250611f73565b505050565b6113c4612abf565b60008411611407576040517f08c379a00000000000000000000000000000000000000000000000000000000081526004016113fe9061459d565b60405180910390fd5b6000831161144a576040517f08c379a000000000000000000000000000000000000000000000000000000000815260040161144190614609565b60405180910390fd5b60006009549050604051806101000160405280828152602001868152602001868152602001858152602001600081526020013373ffffffffffffffffffffffffffffffffffffffff16815260200160011515815260200184848080601f016020809104026020016040519081016040528093929190818152602001838380828437600081840152601f19601f82011690508083019250505050505050815250600b6000838152602001908152602001600020600082015181600001556020820151816001015560408201518160020155606082015181600301556080820151816004015560a08201518160050160006101000a81548173ffffffffffffffffffffffffffffffffffffffff021916908373ffffffffffffffffffffffffffffffffffffffff16021790555060c08201518160050160146101000a81548160ff02191690831515021790555060e08201518160060190816115aa91906147d5565b509050506115b83382612b46565b6116068184848080601f016020809104026020016040519081016040528093929190818152602001838380828437600081840152601f19601f82011690508083019250505050505050612c3f565b60096000815480929190611619906148a7565b91905055503373ffffffffffffffffffffffffffffffffffffffff16817f61edbe4ed6b64ca58a58856a6fef15bb934c6635a72b2a25966775289bf74bd48787878760405161166b949392919061491c565b60405180910390a35050505050565b60008083116116be576040517f08c379a00000000000000000000000000000000000000000000000000000000081526004016116b5906149a8565b60405180910390fd5b60008211611701576040517f08c379a00000000000000000000000000000000000000000000000000000000081526004016116f89061459d565b60405180910390fd5b82600c600086815260200190815260200160002060003373ffffffffffffffffffffffffffffffffffffffff1673ffffffffffffffffffffffffffffffffffffffff168152602001908152602001600020541015611794576040517f08c379a000000000000000000000000000000000000000000000000000000000815260040161178b90614a14565b60405180910390fd5b6000600a5490506040518061010001604052808281526020018681526020013373ffffffffffffffffffffffffffffffffffffffff1681526020018581526020018481526020016000815260200160011515815260200142815250600d6000838152602001908152602001600020600082015181600001556020820151816001015560408201518160020160006101000a81548173ffffffffffffffffffffffffffffffffffffffff021916908373ffffffffffffffffffffffffffffffffffffffff160217905550606082015181600301556080820151816004015560a0820151816005015560c08201518160060160006101000a81548160ff02191690831515021790555060e08201518160070155905050600e600086815260200190815260200160002081908060018154018082558091505060019003906000526020600020016000909190919091505583600c600087815260200190815260200160002060003373ffffffffffffffffffffffffffffffffffffffff1673ffffffffffffffffffffffffffffffffffffffff1681526020019081526020016000206000828254611942919061417a565b92505081905550600a600081548092919061195c906148a7565b91905055503373ffffffffffffffffffffffffffffffffffffffff1685827f1ae920b343a40ad92f961507b5771560d3889785667930c63528379ac3358d1f87876040516119ab9291906144bc565b60405180910390a4809150509392505050565b60006119c9826126b4565b9050919050565b600080600b60008481526020019081526020016000209050806003015481600201546119fc9190614395565b915050919050565b60008073ffffffffffffffffffffffffffffffffffffffff168273ffffffffffffffffffffffffffffffffffffffff1603611a775760006040517f89c62b64000000000000000000000000000000000000000000000000000000008152600401611a6e9190613938565b60405180910390fd5b600360008373ffffffffffffffffffffffffffffffffffffffff1673ffffffffffffffffffffffffffffffffffffffff168152602001908152602001600020549050919050565b611ac6612abf565b611ad06000612c9b565b565b600a81565b600f6020528160005260406000208181548110611af357600080fd5b90600052602060002001600091509150505481565b6000600c600084815260200190815260200160002060008373ffffffffffffffffffffffffffffffffffffffff1673ffffffffffffffffffffffffffffffffffffffff16815260200190815260200160002054905092915050565b6000600b6000838152602001908152602001600020600201549050919050565b6000600760009054906101000a900473ffffffffffffffffffffffffffffffffffffffff16905090565b600080600f600084815260200190815260200160002090506000818054905003611bf057600b600084815260200190815260200160002060010154915050611c54565b6000805b8280549050811015611c3e57828181548110611c1357611c12614a34565b5b906000526020600020015482611c299190614443565b91508080611c36906148a7565b915050611bf4565b50818054905081611c4f9190614a92565b925050505b919050565b606060018054611c689061411a565b80601f0160208091040260200160405190810160405280929190818152602001828054611c949061411a565b8015611ce15780601f10611cb657610100808354040283529160200191611ce1565b820191906000526020600020905b815481529060010190602001808311611cc457829003601f168201915b5050505050905090565b611cfd611cf6612779565b8383612d61565b5050565b600e6020528160005260406000208181548110611d1d57600080fd5b90600052602060002001600091509150505481565b600a5481565b600c602052816000526040600020602052806000526040600020600091509150505481565b60606000600e600084815260200190815260200160002090506000805b8280549050811015611dee57600d6000848381548110611d9d57611d9c614a34565b5b9060005260206000200154815260200190815260200160002060060160009054906101000a900460ff1615611ddb578180611dd7906148a7565b9250505b8080611de6906148a7565b915050611d7a565b5060008167ffffffffffffffff811115611e0b57611e0a613e78565b5b604051908082528060200260200182016040528015611e395781602001602082028036833780820191505090505b5090506000805b8480549050811015611ef157600d6000868381548110611e6357611e62614a34565b5b9060005260206000200154815260200190815260200160002060060160009054906101000a900460ff1615611ede57848181548110611ea557611ea4614a34565b5b9060005260206000200154838381518110611ec357611ec2614a34565b5b6020026020010181815250508180611eda906148a7565b9250505b8080611ee9906148a7565b915050611e40565b5081945050505050919050565b600d6020528060005260406000206000915090508060000154908060010154908060020160009054906101000a900473ffffffffffffffffffffffffffffffffffffffff16908060030154908060040154908060050154908060060160009054906101000a900460ff16908060070154905088565b611f7e848484610bf0565b611f92611f89612779565b85858585612ed0565b50505050565b611fa06129ad565b6000600b600084815260200190815260200160002090508060050160149054906101000a900460ff16612008576040517f08c379a0000000000000000000000000000000000000000000000000000000008152600401611fff90614b0f565b60405180910390fd5b6000821161204b576040517f08c379a000000000000000000000000000000000000000000000000000000000815260040161204290614b7b565b60405180910390fd5b600081600401548260030154612061919061417a565b9050808311156120a6576040517f08c379a000000000000000000000000000000000000000000000000000000000815260040161209d90614be7565b60405180910390fd5b60008260010154846120b89190614395565b9050803410156120fd576040517f08c379a00000000000000000000000000000000000000000000000000000000081526004016120f490614423565b60405180910390fd5b838360040160008282546121119190614443565b9250508190555083600c600087815260200190815260200160002060003373ffffffffffffffffffffffffffffffffffffffff1673ffffffffffffffffffffffffffffffffffffffff16815260200190815260200160002060008282546121789190614443565b925050819055508260050160009054906101000a900473ffffffffffffffffffffffffffffffffffffffff1673ffffffffffffffffffffffffffffffffffffffff166108fc829081150290604051600060405180830381858888f193505050501580156121e9573d6000803e3d6000fd5b5080341115612245573373ffffffffffffffffffffffffffffffffffffffff166108fc8234612218919061417a565b9081150290604051600060405180830381858888f19350505050158015612243573d6000803e3d6000fd5b505b3373ffffffffffffffffffffffffffffffffffffffff16857f1004f14b1d65d3a46bf6dd39c3b7e180b16658e7470745283ed6e0fad94fd50b8684600160405161229193929190614c07565b60405180910390a35050506122a4612ab5565b5050565b60606122b3826126b4565b5060006006600084815260200190815260200160002080546122d49061411a565b80601f01602080910402602001604051908101604052809291908181526020018280546123009061411a565b801561234d5780601f106123225761010080835404028352916020019161234d565b820191906000526020600020905b81548152906001019060200180831161233057829003601f168201915b50505050509050600061235e613081565b905060008151036123735781925050506123b6565b6000825111156123a8578082604051602001612390929190614c7a565b604051602081830303815290604052925050506123b6565b6123b184613098565b925050505b919050565b6000600560008473ffffffffffffffffffffffffffffffffffffffff1673ffffffffffffffffffffffffffffffffffffffff16815260200190815260200160002060008373ffffffffffffffffffffffffffffffffffffffff1673ffffffffffffffffffffffffffffffffffffffff16815260200190815260200160002060009054906101000a900460ff16905092915050565b612457612abf565b600073ffffffffffffffffffffffffffffffffffffffff168173ffffffffffffffffffffffffffffffffffffffff16036124c95760006040517f1e4fbdf70000000000000000000000000000000000000000000000000000000081526004016124c09190613938565b60405180910390fd5b6124d281612c9b565b50565b600b6020528060005260406000206000915090508060000154908060010154908060020154908060030154908060040154908060050160009054906101000a900473ffffffffffffffffffffffffffffffffffffffff16908060050160149054906101000a900460ff169080600601805461254f9061411a565b80601f016020809104026020016040519081016040528092919081815260200182805461257b9061411a565b80156125c85780601f1061259d576101008083540402835291602001916125c8565b820191906000526020600020905b8154815290600101906020018083116125ab57829003601f168201915b5050505050905088565b60007f80ac58cd000000000000000000000000000000000000000000000000000000007bffffffffffffffffffffffffffffffffffffffffffffffffffffffff1916827bffffffffffffffffffffffffffffffffffffffffffffffffffffffff1916148061269d57507f5b5e139f000000000000000000000000000000000000000000000000000000007bffffffffffffffffffffffffffffffffffffffffffffffffffffffff1916827bffffffffffffffffffffffffffffffffffffffffffffffffffffffff1916145b806126ad57506126ac82613101565b5b9050919050565b6000806126c08361316b565b9050600073ffffffffffffffffffffffffffffffffffffffff168173ffffffffffffffffffffffffffffffffffffffff160361273357826040517f7e27328900000000000000000000000000000000000000000000000000000000815260040161272a9190613ab5565b60405180910390fd5b80915050919050565b60006004600083815260200190815260200160002060009054906101000a900473ffffffffffffffffffffffffffffffffffffffff169050919050565b600033905090565b61278e83838360016131a8565b505050565b60008061279f8461316b565b9050600073ffffffffffffffffffffffffffffffffffffffff168373ffffffffffffffffffffffffffffffffffffffff16146127e1576127e081848661336d565b5b600073ffffffffffffffffffffffffffffffffffffffff168173ffffffffffffffffffffffffffffffffffffffff1614612872576128236000856000806131a8565b6001600360008373ffffffffffffffffffffffffffffffffffffffff1673ffffffffffffffffffffffffffffffffffffffff168152602001908152602001600020600082825403925050819055505b600073ffffffffffffffffffffffffffffffffffffffff168573ffffffffffffffffffffffffffffffffffffffff16146128f5576001600360008773ffffffffffffffffffffffffffffffffffffffff1673ffffffffffffffffffffffffffffffffffffffff168152602001908152602001600020600082825401925050819055505b846002600086815260200190815260200160002060006101000a81548173ffffffffffffffffffffffffffffffffffffffff021916908373ffffffffffffffffffffffffffffffffffffffff160217905550838573ffffffffffffffffffffffffffffffffffffffff168273ffffffffffffffffffffffffffffffffffffffff167fddf252ad1be2c89b69c2b068fc378daa952ba7f163c4a11628f55a4df523b3ef60405160405180910390a4809150509392505050565b6002600854036129e9576040517f3ee5aeb500000000000000000000000000000000000000000000000000000000815260040160405180910390fd5b6002600881905550565b6000600f60008481526020019081526020016000209050600a81805490501015612a445780829080600181540180825580915050600190039060005260206000200160009091909190915055612ab0565b60006010600085815260200190815260200160002054905082828281548110612a7057612a6f614a34565b5b9060005260206000200181905550600a600182612a8d9190614443565b612a979190614c9e565b6010600086815260200190815260200160002081905550505b505050565b6001600881905550565b612ac7612779565b73ffffffffffffffffffffffffffffffffffffffff16612ae5611b83565b73ffffffffffffffffffffffffffffffffffffffff1614612b4457612b08612779565b6040517f118cdaa7000000000000000000000000000000000000000000000000000000008152600401612b3b9190613938565b60405180910390fd5b565b600073ffffffffffffffffffffffffffffffffffffffff168273ffffffffffffffffffffffffffffffffffffffff1603612bb85760006040517f64a0ae92000000000000000000000000000000000000000000000000000000008152600401612baf9190613938565b60405180910390fd5b6000612bc683836000612793565b9050600073ffffffffffffffffffffffffffffffffffffffff168173ffffffffffffffffffffffffffffffffffffffff1614612c3a5760006040517f73c6ac6e000000000000000000000000000000000000000000000000000000008152600401612c319190613938565b60405180910390fd5b505050565b80600660008481526020019081526020016000209081612c5f91906147d5565b507ff8e1a15aba9398e019f0b49df1a4fde98ee17ae345cb5f6b5e2c27f5033e8ce782604051612c8f9190613ab5565b60405180910390a15050565b6000600760009054906101000a900473ffffffffffffffffffffffffffffffffffffffff16905081600760006101000a81548173ffffffffffffffffffffffffffffffffffffffff021916908373ffffffffffffffffffffffffffffffffffffffff1602179055508173ffffffffffffffffffffffffffffffffffffffff168173ffffffffffffffffffffffffffffffffffffffff167f8be0079c531659141344cd1fd0a4f28419497f9722a3daafe3b4186f6b6457e060405160405180910390a35050565b600073ffffffffffffffffffffffffffffffffffffffff168273ffffffffffffffffffffffffffffffffffffffff1603612dd257816040517f5b08ba18000000000000000000000000000000000000000000000000000000008152600401612dc99190613938565b60405180910390fd5b80600560008573ffffffffffffffffffffffffffffffffffffffff1673ffffffffffffffffffffffffffffffffffffffff16815260200190815260200160002060008473ffffffffffffffffffffffffffffffffffffffff1673ffffffffffffffffffffffffffffffffffffffff16815260200190815260200160002060006101000a81548160ff0219169083151502179055508173ffffffffffffffffffffffffffffffffffffffff168373ffffffffffffffffffffffffffffffffffffffff167f17307eab39ab6107e8899845ad3d59bd9653f200f220920489ca2b5937696c3183604051612ec391906137c7565b60405180910390a3505050565b60008373ffffffffffffffffffffffffffffffffffffffff163b111561307a578273ffffffffffffffffffffffffffffffffffffffff1663150b7a02868685856040518563ffffffff1660e01b8152600401612f2f9493929190614d24565b6020604051808303816000875af1925050508015612f6b57506040513d601f19601f82011682018060405250810190612f689190614d85565b60015b612fef573d8060008114612f9b576040519150601f19603f3d011682016040523d82523d6000602084013e612fa0565b606091505b506000815103612fe757836040517f64a0ae92000000000000000000000000000000000000000000000000000000008152600401612fde9190613938565b60405180910390fd5b805160208201fd5b63150b7a0260e01b7bffffffffffffffffffffffffffffffffffffffffffffffffffffffff1916817bffffffffffffffffffffffffffffffffffffffffffffffffffffffff19161461307857836040517f64a0ae9200000000000000000000000000000000000000000000000000000000815260040161306f9190613938565b60405180910390fd5b505b5050505050565b606060405180602001604052806000815250905090565b60606130a3826126b4565b5060006130ae613081565b905060008151116130ce57604051806020016040528060008152506130f9565b806130d884613431565b6040516020016130e9929190614c7a565b6040516020818303038152906040525b915050919050565b60007f01ffc9a7000000000000000000000000000000000000000000000000000000007bffffffffffffffffffffffffffffffffffffffffffffffffffffffff1916827bffffffffffffffffffffffffffffffffffffffffffffffffffffffff1916149050919050565b60006002600083815260200190815260200160002060009054906101000a900473ffffffffffffffffffffffffffffffffffffffff169050919050565b80806131e15750600073ffffffffffffffffffffffffffffffffffffffff168273ffffffffffffffffffffffffffffffffffffffff1614155b156133155760006131f1846126b4565b9050600073ffffffffffffffffffffffffffffffffffffffff168373ffffffffffffffffffffffffffffffffffffffff161415801561325c57508273ffffffffffffffffffffffffffffffffffffffff168173ffffffffffffffffffffffffffffffffffffffff1614155b801561326f575061326d81846123bb565b155b156132b157826040517fa9fbf51f0000000000000000000000000000000000000000000000000000000081526004016132a89190613938565b60405180910390fd5b811561331357838573ffffffffffffffffffffffffffffffffffffffff168273ffffffffffffffffffffffffffffffffffffffff167f8c5be1e5ebec7d5bd14f71427d1e84f3dd0314c0f7b2291e5b200ac8c7c3b92560405160405180910390a45b505b836004600085815260200190815260200160002060006101000a81548173ffffffffffffffffffffffffffffffffffffffff021916908373ffffffffffffffffffffffffffffffffffffffff16021790555050505050565b6133788383836134ff565b61342c57600073ffffffffffffffffffffffffffffffffffffffff168373ffffffffffffffffffffffffffffffffffffffff16036133ed57806040517f7e2732890000000000000000000000000000000000000000000000000000000081526004016133e49190613ab5565b60405180910390fd5b81816040517f177e802f000000000000000000000000000000000000000000000000000000008152600401613423929190614db2565b60405180910390fd5b505050565b606060006001613440846135c0565b01905060008167ffffffffffffffff81111561345f5761345e613e78565b5b6040519080825280601f01601f1916602001820160405280156134915781602001600182028036833780820191505090505b509050600082602083010190505b6001156134f4578080600190039150507f3031323334353637383961626364656600000000000000000000000000000000600a86061a8153600a85816134e8576134e7614a63565b5b0494506000850361349f575b819350505050919050565b60008073ffffffffffffffffffffffffffffffffffffffff168373ffffffffffffffffffffffffffffffffffffffff16141580156135b757508273ffffffffffffffffffffffffffffffffffffffff168473ffffffffffffffffffffffffffffffffffffffff161480613578575061357784846123bb565b5b806135b657508273ffffffffffffffffffffffffffffffffffffffff1661359e8361273c565b73ffffffffffffffffffffffffffffffffffffffff16145b5b90509392505050565b600080600090507a184f03e93ff9f4daa797ed6e38ed64bf6a1f010000000000000000831061361e577a184f03e93ff9f4daa797ed6e38ed64bf6a1f010000000000000000838161361457613613614a63565b5b0492506040810190505b6d04ee2d6d415b85acef8100000000831061365b576d04ee2d6d415b85acef8100000000838161365157613650614a63565b5b0492506020810190505b662386f26fc10000831061368a57662386f26fc1000083816136805761367f614a63565b5b0492506010810190505b6305f5e10083106136b3576305f5e10083816136a9576136a8614a63565b5b0492506008810190505b61271083106136d85761271083816136ce576136cd614a63565b5b0492506004810190505b606483106136fb57606483816136f1576136f0614a63565b5b0492506002810190505b600a831061370a576001810190505b80915050919050565b6000604051905090565b600080fd5b600080fd5b60007fffffffff0000000000000000000000000000000000000000000000000000000082169050919050565b61375c81613727565b811461376757600080fd5b50565b60008135905061377981613753565b92915050565b6000602082840312156137955761379461371d565b5b60006137a38482850161376a565b91505092915050565b60008115159050919050565b6137c1816137ac565b82525050565b60006020820190506137dc60008301846137b8565b92915050565b600081519050919050565b600082825260208201905092915050565b60005b8381101561381c578082015181840152602081019050613801565b60008484015250505050565b6000601f19601f8301169050919050565b6000613844826137e2565b61384e81856137ed565b935061385e8185602086016137fe565b61386781613828565b840191505092915050565b6000602082019050818103600083015261388c8184613839565b905092915050565b6000819050919050565b6138a781613894565b81146138b257600080fd5b50565b6000813590506138c48161389e565b92915050565b6000602082840312156138e0576138df61371d565b5b60006138ee848285016138b5565b91505092915050565b600073ffffffffffffffffffffffffffffffffffffffff82169050919050565b6000613922826138f7565b9050919050565b61393281613917565b82525050565b600060208201905061394d6000830184613929565b92915050565b61395c81613917565b811461396757600080fd5b50565b60008135905061397981613953565b92915050565b600080604083850312156139965761399561371d565b5b60006139a48582860161396a565b92505060206139b5858286016138b5565b9150509250929050565b6139c881613894565b82525050565b6000610120820190506139e4600083018c6139bf565b6139f1602083018b6139bf565b6139fe604083018a6139bf565b613a0b60608301896139bf565b613a1860808301886139bf565b613a2560a08301876139bf565b613a3260c0830186613929565b613a3f60e08301856137b8565b818103610100830152613a528184613839565b90509a9950505050505050505050565b600080600060608486031215613a7b57613a7a61371d565b5b6000613a898682870161396a565b9350506020613a9a8682870161396a565b9250506040613aab868287016138b5565b9150509250925092565b6000602082019050613aca60008301846139bf565b92915050565b60008060408385031215613ae757613ae661371d565b5b6000613af5858286016138b5565b9250506020613b06858286016138b5565b9150509250929050565b600080fd5b600080fd5b600080fd5b60008083601f840112613b3557613b34613b10565b5b8235905067ffffffffffffffff811115613b5257613b51613b15565b5b602083019150836001820283011115613b6e57613b6d613b1a565b5b9250929050565b60008060008060608587031215613b8f57613b8e61371d565b5b6000613b9d878288016138b5565b9450506020613bae878288016138b5565b935050604085013567ffffffffffffffff811115613bcf57613bce613722565b5b613bdb87828801613b1f565b925092505092959194509250565b600080600060608486031215613c0257613c0161371d565b5b6000613c10868287016138b5565b9350506020613c21868287016138b5565b9250506040613c32868287016138b5565b9150509250925092565b600060208284031215613c5257613c5161371d565b5b6000613c608482850161396a565b91505092915050565b60008060408385031215613c8057613c7f61371d565b5b6000613c8e858286016138b5565b9250506020613c9f8582860161396a565b9150509250929050565b613cb2816137ac565b8114613cbd57600080fd5b50565b600081359050613ccf81613ca9565b92915050565b60008060408385031215613cec57613ceb61371d565b5b6000613cfa8582860161396a565b9250506020613d0b85828601613cc0565b9150509250929050565b600081519050919050565b600082825260208201905092915050565b6000819050602082019050919050565b613d4a81613894565b82525050565b6000613d5c8383613d41565b60208301905092915050565b6000602082019050919050565b6000613d8082613d15565b613d8a8185613d20565b9350613d9583613d31565b8060005b83811015613dc6578151613dad8882613d50565b9750613db883613d68565b925050600181019050613d99565b5085935050505092915050565b60006020820190508181036000830152613ded8184613d75565b905092915050565b600061010082019050613e0b600083018b6139bf565b613e18602083018a6139bf565b613e256040830189613929565b613e3260608301886139bf565b613e3f60808301876139bf565b613e4c60a08301866139bf565b613e5960c08301856137b8565b613e6660e08301846139bf565b9998505050505050505050565b600080fd5b7f4e487b7100000000000000000000000000000000000000000000000000000000600052604160045260246000fd5b613eb082613828565b810181811067ffffffffffffffff82111715613ecf57613ece613e78565b5b80604052505050565b6000613ee2613713565b9050613eee8282613ea7565b919050565b600067ffffffffffffffff821115613f0e57613f0d613e78565b5b613f1782613828565b9050602081019050919050565b82818337600083830152505050565b6000613f46613f4184613ef3565b613ed8565b905082815260208101848484011115613f6257613f61613e73565b5b613f6d848285613f24565b509392505050565b600082601f830112613f8a57613f89613b10565b5b8135613f9a848260208601613f33565b91505092915050565b60008060008060808587031215613fbd57613fbc61371d565b5b6000613fcb8782880161396a565b9450506020613fdc8782880161396a565b9350506040613fed878288016138b5565b925050606085013567ffffffffffffffff81111561400e5761400d613722565b5b61401a87828801613f75565b91505092959194509250565b6000806040838503121561403d5761403c61371d565b5b600061404b8582860161396a565b925050602061405c8582860161396a565b9150509250929050565b60006101008201905061407c600083018b6139bf565b614089602083018a6139bf565b61409660408301896139bf565b6140a360608301886139bf565b6140b060808301876139bf565b6140bd60a0830186613929565b6140ca60c08301856137b8565b81810360e08301526140dc8184613839565b90509998505050505050505050565b7f4e487b7100000000000000000000000000000000000000000000000000000000600052602260045260246000fd5b6000600282049050600182168061413257607f821691505b602082108103614145576141446140eb565b5b50919050565b7f4e487b7100000000000000000000000000000000000000000000000000000000600052601160045260246000fd5b600061418582613894565b915061419083613894565b92508282039050818111156141a8576141a761414b565b5b92915050565b60006060820190506141c36000830186613929565b6141d060208301856139bf565b6141dd6040830184613929565b949350505050565b7f4c697374696e67206e6f74206163746976650000000000000000000000000000600082015250565b600061421b6012836137ed565b9150614226826141e5565b602082019050919050565b6000602082019050818103600083015261424a8161420e565b9050919050565b7f4d75737420627579206174206c65617374203100000000000000000000000000600082015250565b60006142876013836137ed565b915061429282614251565b602082019050919050565b600060208201905081810360008301526142b68161427a565b9050919050565b7f43616e6e6f7420627579206f776e206c697374696e6700000000000000000000600082015250565b60006142f36016836137ed565b91506142fe826142bd565b602082019050919050565b60006020820190508181036000830152614322816142e6565b9050919050565b7f4e6f7420656e6f7567682073686172657320696e206c697374696e6700000000600082015250565b600061435f601c836137ed565b915061436a82614329565b602082019050919050565b6000602082019050818103600083015261438e81614352565b9050919050565b60006143a082613894565b91506143ab83613894565b92508282026143b981613894565b915082820484148315176143d0576143cf61414b565b5b5092915050565b7f496e73756666696369656e74207061796d656e74000000000000000000000000600082015250565b600061440d6014836137ed565b9150614418826143d7565b602082019050919050565b6000602082019050818103600083015261443c81614400565b9050919050565b600061444e82613894565b915061445983613894565b92508282019050808211156144715761447061414b565b5b92915050565b600060808201905061448c6000830187613929565b61449960208301866139bf565b6144a660408301856139bf565b6144b360608301846139bf565b95945050505050565b60006040820190506144d160008301856139bf565b6144de60208301846139bf565b9392505050565b7f4e6f7420796f7572206c697374696e6700000000000000000000000000000000600082015250565b600061451b6010836137ed565b9150614526826144e5565b602082019050919050565b6000602082019050818103600083015261454a8161450e565b9050919050565b7f5072696365206d757374206265203e2030000000000000000000000000000000600082015250565b60006145876011836137ed565b915061459282614551565b602082019050919050565b600060208201905081810360008301526145b68161457a565b9050919050565b7f536861726573206d757374206265203e20300000000000000000000000000000600082015250565b60006145f36012836137ed565b91506145fe826145bd565b602082019050919050565b60006020820190508181036000830152614622816145e6565b9050919050565b60008190508160005260206000209050919050565b60006020601f8301049050919050565b600082821b905092915050565b60006008830261468b7fffffffffffffffffffffffffffffffffffffffffffffffffffffffffffffffff8261464e565b614695868361464e565b95508019841693508086168417925050509392505050565b6000819050919050565b60006146d26146cd6146c884613894565b6146ad565b613894565b9050919050565b6000819050919050565b6146ec836146b7565b6147006146f8826146d9565b84845461465b565b825550505050565b600090565b614715614708565b6147208184846146e3565b505050565b5b818110156147445761473960008261470d565b600181019050614726565b5050565b601f8211156147895761475a81614629565b6147638461463e565b81016020851015614772578190505b61478661477e8561463e565b830182614725565b50505b505050565b600082821c905092915050565b60006147ac6000198460080261478e565b1980831691505092915050565b60006147c5838361479b565b9150826002028217905092915050565b6147de826137e2565b67ffffffffffffffff8111156147f7576147f6613e78565b5b614801825461411a565b61480c828285614748565b600060209050601f83116001811461483f576000841561482d578287015190505b61483785826147b9565b86555061489f565b601f19841661484d86614629565b60005b8281101561487557848901518255600182019150602085019450602081019050614850565b86831015614892578489015161488e601f89168261479b565b8355505b6001600288020188555050505b505050505050565b60006148b282613894565b91507fffffffffffffffffffffffffffffffffffffffffffffffffffffffffffffffff82036148e4576148e361414b565b5b600182019050919050565b60006148fb83856137ed565b9350614908838584613f24565b61491183613828565b840190509392505050565b600060608201905061493160008301876139bf565b61493e60208301866139bf565b81810360408301526149518184866148ef565b905095945050505050565b7f4d757374206c697374206174206c656173742031207368617265000000000000600082015250565b6000614992601a836137ed565b915061499d8261495c565b602082019050919050565b600060208201905081810360008301526149c181614985565b9050919050565b7f496e73756666696369656e742073686172657300000000000000000000000000600082015250565b60006149fe6013836137ed565b9150614a09826149c8565b602082019050919050565b60006020820190508181036000830152614a2d816149f1565b9050919050565b7f4e487b7100000000000000000000000000000000000000000000000000000000600052603260045260246000fd5b7f4e487b7100000000000000000000000000000000000000000000000000000000600052601260045260246000fd5b6000614a9d82613894565b9150614aa883613894565b925082614ab857614ab7614a63565b5b828204905092915050565b7f50726f7065727479206e6f742061637469766500000000000000000000000000600082015250565b6000614af96013836137ed565b9150614b0482614ac3565b602082019050919050565b60006020820190508181036000830152614b2881614aec565b9050919050565b7f4d75737420627579206174206c65617374203120736861726500000000000000600082015250565b6000614b656019836137ed565b9150614b7082614b2f565b602082019050919050565b60006020820190508181036000830152614b9481614b58565b9050919050565b7f4e6f7420656e6f7567682073686172657320617661696c61626c650000000000600082015250565b6000614bd1601b836137ed565b9150614bdc82614b9b565b602082019050919050565b60006020820190508181036000830152614c0081614bc4565b9050919050565b6000606082019050614c1c60008301866139bf565b614c2960208301856139bf565b614c3660408301846137b8565b949350505050565b600081905092915050565b6000614c54826137e2565b614c5e8185614c3e565b9350614c6e8185602086016137fe565b80840191505092915050565b6000614c868285614c49565b9150614c928284614c49565b91508190509392505050565b6000614ca982613894565b9150614cb483613894565b925082614cc457614cc3614a63565b5b828206905092915050565b600081519050919050565b600082825260208201905092915050565b6000614cf682614ccf565b614d008185614cda565b9350614d108185602086016137fe565b614d1981613828565b840191505092915050565b6000608082019050614d396000830187613929565b614d466020830186613929565b614d5360408301856139bf565b8181036060830152614d658184614ceb565b905095945050505050565b600081519050614d7f81613753565b92915050565b600060208284031215614d9b57614d9a61371d565b5b6000614da984828501614d70565b91505092915050565b6000604082019050614dc76000830185613929565b614dd460208301846139bf565b939250505056fea26469706673582212208172bb543fbd93ad766be511d4fa024cd8c710863ddbded9c71fbb170adaac0a64736f6c63430008140033",
  "linkReferences": {},
  "deployedLinkReferences": {}
}