{
  "_format": "hh-sol-artifact-1",
  "contractName": "RealEstateMarketplace",
  "sourceName": "contracts/RealEstateNFT.sol",
  "abi": [
    {
      "inputs": [],
      "stateMutability": "nonpayable",
      "type": "constructor"
    },
    {
      "inputs": [
        {
          "internalType": "address",
          "name": "owner",
          "type": "address"
        }
      ],
      "name": "OwnableInvalidOwner",
      "type": "error"
    },
    {
      "inputs": [
        {
          "internalType": "address",
          "name": "account",
          "type": "address"
        }
      ],
      "name": "OwnableUnauthorizedAccount",
      "type": "error"
    },
    {
      "inputs": [],
      "name": "ReentrancyGuardReentrantCall",
      "type": "error"
    },
    {
      "anonymous": false,
      "inputs": [
        {
          "indexed": true,
          "internalType": "address",
          "name": "previousOwner",
          "type": "address"
        },
        {
          "indexed": true,
          "internalType": "address",
          "name": "newOwner",
          "type": "address"
        }
      ],
      "name": "OwnershipTransferred",
      "type": "event"
    },
    {
      "anonymous": false,
      "inputs": [
        {
          "indexed": true,
          "internalType": "uint256",
          "name": "id",
          "type": "uint256"
        },
        {
          "indexed": false,
          "internalType": "address",
          "name": "owner",
          "type": "address"
        },
        {
          "indexed": false,
          "internalType": "uint256",
          "name": "price",
          "type": "uint256"
        },
        {
          "indexed": false,
          "internalType": "uint256",
          "name": "shares",
          "type": "uint256"
        }
      ],
      "name": "PropertyListed",
      "type": "event"
    },
    {
      "anonymous": false,
      "inputs": [
        {
          "indexed": true,
          "internalType": "uint256",
          "name": "listingId",
          "type": "uint256"
        },
        {
          "indexed": false,
          "internalType": "uint256",
          "name": "propertyId",
          "type": "uint256"
        },
        {
          "indexed": false,
          "internalType": "uint256",
          "name": "shares",
          "type": "uint256"
        },
        {
          "indexed": false,
          "internalType": "uint256",
          "name": "price",
          "type": "uint256"
        }
      ],
      "name": "ResaleCreated",
      "type": "event"
    },
    {
      "anonymous": false,
      "inputs": [
        {
          "indexed": true,
          "internalType": "uint256",
          "name": "listingId",
          "type": "uint256"
        },
        {
          "indexed": false,
          "internalType": "address",
          "name": "buyer",
          "type": "address"
        },
        {
          "indexed": false,
          "internalType": "uint256",
          "name": "shares",
          "type": "uint256"
        },
        {
          "indexed": false,
          "internalType": "uint256",
          "name": "newPrice",
          "type": "uint256"
        }
      ],
      "name": "ResaleSold",
      "type": "event"
    },
    {
      "anonymous": false,
      "inputs": [
        {
          "indexed": true,
          "internalType": "uint256",
          "name": "id",
          "type": "uint256"
        },
        {
          "indexed": false,
          "internalType": "address",
          "name": "buyer",
          "type": "address"
        },
        {
          "indexed": false,
          "internalType": "uint256",
          "name": "shares",
          "type": "uint256"
        },
        {
          "indexed": false,
          "internalType": "uint256",
          "name": "cost",
          "type": "uint256"
        }
      ],
      "name": "SharesPurchased",
      "type": "event"
    },
    {
      "inputs": [
        {
          "internalType": "uint256",
          "name": "_listingId",
          "type": "uint256"
        },
        {
          "internalType": "uint256",
          "name": "_amount",
          "type": "uint256"
        }
      ],
      "name": "buyResale",
      "outputs": [],
      "stateMutability": "payable",
      "type": "function"
    },
    {
      "inputs": [
        {
          "internalType": "uint256",
          "name": "_id",
          "type": "uint256"
        },
        {
          "internalType": "uint256",
          "name": "_amount",
          "type": "uint256"
        }
      ],
      "name": "buyShares",
      "outputs": [],
      "stateMutability": "payable",
      "type": "function"
    },
    {
      "inputs": [
        {
          "internalType": "uint256",
          "name": "_id",
          "type": "uint256"
        }
      ],
      "name": "cancelResale",
      "outputs": [],
      "stateMutability": "nonpayable",
      "type": "function"
    },
    {
      "inputs": [
        {
          "internalType": "uint256",
          "name": "_id",
          "type": "uint256"
        }
      ],
      "name": "getMarketValue",
      "outputs": [
        {
          "internalType": "uint256",
          "name": "",
          "type": "uint256"
        }
      ],
      "stateMutability": "view",
      "type": "function"
    },
    {
      "inputs": [
        {
          "internalType": "uint256",
          "name": "_id",
          "type": "uint256"
        }
      ],
      "name": "getPrice",
      "outputs": [
        {
          "internalType": "uint256",
          "name": "",
          "type": "uint256"
        }
      ],
      "stateMutability": "view",
      "type": "function"
    },
    {
      "inputs": [
        {
          "internalType": "uint256",
          "name": "",
          "type": "uint256"
        }
      ],
      "name": "lastResalePrice",
      "outputs": [
        {
          "internalType": "uint256",
          "name": "",
          "type": "uint256"
        }
      ],
      "stateMutability": "view",
      "type": "function"
    },
    {
      "inputs": [
        {
          "internalType": "uint256",
          "name": "_propId",
          "type": "uint256"
        },
        {
          "internalType": "uint256",
          "name": "_shares",
          "type": "uint256"
        },
        {
          "internalType": "uint256",
          "name": "_price",
          "type": "uint256"
        }
      ],
      "name": "listForResale",
      "outputs": [],
      "stateMutability": "nonpayable",
      "type": "function"
    },
    {
      "inputs": [
        {
          "internalType": "uint256",
          "name": "_price",
          "type": "uint256"
        },
        {
          "internalType": "uint256",
          "name": "_shares",
          "type": "uint256"
        }
      ],
      "name": "listProperty",
      "outputs": [],
      "stateMutability": "nonpayable",
      "type": "function"
    },
    {
      "inputs": [],
      "name": "nextListingId",
      "outputs": [
        {
          "internalType": "uint256",
          "name": "",
          "type": "uint256"
        }
      ],
      "stateMutability": "view",
      "type": "function"
    },
    {
      "inputs": [],
      "name": "nextPropertyId",
      "outputs": [
        {
          "internalType": "uint256",
          "name": "",
          "type": "uint256"
        }
      ],
      "stateMutability": "view",
      "type": "function"
    },
    {
      "inputs": [],
      "name": "owner",
      "outputs": [
        {
          "internalType": "address",
          "name": "",
          "type": "address"
        }
      ],
      "stateMutability": "view",
      "type": "function"
    },
    {
      "inputs": [
        {
          "internalType": "uint256",
          "name": "",
          "type": "uint256"
        }
      ],
      "name": "properties",
      "outputs": [
        {
          "internalType": "uint256",
          "name": "pricePerShare",
          "type": "uint256"
        },
        {
          "internalType": "uint256",
          "name": "totalShares",
          "type": "uint256"
        },
        {
          "internalType": "uint256",
          "name": "sharesSold",
          "type": "uint256"
        },
        {
          "internalType": "address",
          "name": "owner",
          "type": "address"
        },
        {
          "internalType": "bool",
          "name": "isActive",
          "type": "bool"
        }
      ],
      "stateMutability": "view",
      "type": "function"
    },
    {
      "inputs": [],
      "name": "renounceOwnership",
      "outputs": [],
      "stateMutability": "nonpayable",
      "type": "function"
    },
    {
      "inputs": [
        {
          "internalType": "uint256",
          "name": "",
          "type": "uint256"
        }
      ],
      "name": "resaleListings",
      "outputs": [
        {
          "internalType": "uint256",
          "name": "propertyId",
          "type": "uint256"
        },
        {
          "internalType": "address",
          "name": "seller",
          "type": "address"
        },
        {
          "internalType": "uint256",
          "name": "shares",
          "type": "uint256"
        },
        {
          "internalType": "uint256",
          "name": "price",
          "type": "uint256"
        },
        {
          "internalType": "bool",
          "name": "isActive",
          "type": "bool"
        }
      ],
      "stateMutability": "view",
      "type": "function"
    },
    {
      "inputs": [
        {
          "internalType": "address",
          "name": "newOwner",
          "type": "address"
        }
      ],
      "name": "transferOwnership",
      "outputs": [],
      "stateMutability": "nonpayable",
      "type": "function"
    },
    {
      "inputs": [
        {
          "internalType": "uint256",
          "name": "",
          "type": "uint256"
        },
        {
          "internalType": "address",
          "name": "",
          "type": "address"
        }
      ],
      "name": "userShares",
      "outputs": [
        {
          "internalType": "uint256",
          "name": "",
          "type": "uint256"
        }
      ],
      "stateMutability": "view",
      "type": "function"
    }
  ],
  "bytecode": "0x60806040523480156200001157600080fd5b5033600073ffffffffffffffffffffffffffffffffffffffff168173ffffffffffffffffffffffffffffffffffffffff1603620000885760006040517f1e4fbdf70000000000000000000000000000000000000000000000000000000081526004016200007f9190620001b0565b60405180910390fd5b6200009981620000a760201b60201c565b5060018081905550620001cd565b60008060009054906101000a900473ffffffffffffffffffffffffffffffffffffffff169050816000806101000a81548173ffffffffffffffffffffffffffffffffffffffff021916908373ffffffffffffffffffffffffffffffffffffffff1602179055508173ffffffffffffffffffffffffffffffffffffffff168173ffffffffffffffffffffffffffffffffffffffff167f8be0079c531659141344cd1fd0a4f28419497f9722a3daafe3b4186f6b6457e060405160405180910390a35050565b600073ffffffffffffffffffffffffffffffffffffffff82169050919050565b600062000198826200016b565b9050919050565b620001aa816200018b565b82525050565b6000602082019050620001c760008301846200019f565b92915050565b61198a80620001dd6000396000f3fe6080604052600436106100f35760003560e01c8063ab41dd8a1161008a578063e757223011610059578063e757223014610312578063f1975a6f1461034f578063f2fde38b14610378578063f7b10808146103a1576100f3565b8063ab41dd8a1461024f578063ad95487814610278578063b41b4bd4146102b5578063beebc5da146102f6576100f3565b8063715018a6116100c6578063715018a6146101c65780638da5cb5b146101dd578063a89d2d3814610208578063aaccf1ec14610224576100f3565b8063054e0099146100f857806339500f34146101355780634eda529b14610160578063554070bc14610189575b600080fd5b34801561010457600080fd5b5061011f600480360381019061011a91906112f8565b6103e2565b60405161012c9190611334565b60405180910390f35b34801561014157600080fd5b5061014a6103fa565b6040516101579190611334565b60405180910390f35b34801561016c57600080fd5b506101876004803603810190610182919061134f565b610400565b005b34801561019557600080fd5b506101b060048036038101906101ab91906112f8565b610540565b6040516101bd9190611334565b60405180910390f35b3480156101d257600080fd5b506101db6105bb565b005b3480156101e957600080fd5b506101f26105cf565b6040516101ff91906113d0565b60405180910390f35b610222600480360381019061021d919061134f565b6105f8565b005b34801561023057600080fd5b506102396108da565b6040516102469190611334565b60405180910390f35b34801561025b57600080fd5b50610276600480360381019061027191906113eb565b6108e0565b005b34801561028457600080fd5b5061029f600480360381019061029a919061146a565b610b12565b6040516102ac9190611334565b60405180910390f35b3480156102c157600080fd5b506102dc60048036038101906102d791906112f8565b610b37565b6040516102ed9594939291906114c5565b60405180910390f35b610310600480360381019061030b919061134f565b610b9a565b005b34801561031e57600080fd5b50610339600480360381019061033491906112f8565b610e8b565b6040516103469190611334565b60405180910390f35b34801561035b57600080fd5b50610376600480360381019061037191906112f8565b610edf565b005b34801561038457600080fd5b5061039f600480360381019061039a9190611518565b611032565b005b3480156103ad57600080fd5b506103c860048036038101906103c391906112f8565b6110b8565b6040516103d9959493929190611545565b60405180910390f35b60076020528060005260406000206000915090505481565b60025481565b61040861111b565b6040518060a00160405280838152602001828152602001600081526020013373ffffffffffffffffffffffffffffffffffffffff1681526020016001151581525060046000600254815260200190815260200160002060008201518160000155602082015181600101556040820151816002015560608201518160030160006101000a81548173ffffffffffffffffffffffffffffffffffffffff021916908373ffffffffffffffffffffffffffffffffffffffff16021790555060808201518160030160146101000a81548160ff0219169083151502179055509050506002547f2c479e2e638a3a97a6f194336f17f298b4ec7145f37c7d35ff6346f9cd4a003033848460405161051c93929190611598565b60405180910390a260026000815480929190610537906115fe565b91905055505050565b600080600060076000858152602001908152602001600020541161057a57600460008481526020019081526020016000206000015461058f565b60076000848152602001908152602001600020545b90506004600084815260200190815260200160002060010154816105b39190611646565b915050919050565b6105c361111b565b6105cd60006111a2565b565b60008060009054906101000a900473ffffffffffffffffffffffffffffffffffffffff16905090565b610600611266565b60006006600084815260200190815260200160002090508060040160009054906101000a900460ff168015610639575080600201548211155b610678576040517f08c379a000000000000000000000000000000000000000000000000000000000815260040161066f906116e5565b60405180910390fd5b8060030154826106889190611646565b3410156106ca576040517f08c379a00000000000000000000000000000000000000000000000000000000081526004016106c190611751565b60405180910390fd5b818160020160008282546106de9190611771565b92505081905550600081600201540361070f5760008160040160006101000a81548160ff0219169083151502179055505b81600560008360000154815260200190815260200160002060003373ffffffffffffffffffffffffffffffffffffffff1673ffffffffffffffffffffffffffffffffffffffff168152602001908152602001600020600082825461077391906117a5565b9250508190555080600301546007600083600001548152602001908152602001600020819055508060010160009054906101000a900473ffffffffffffffffffffffffffffffffffffffff1673ffffffffffffffffffffffffffffffffffffffff166108fc8260030154846107e89190611646565b9081150290604051600060405180830381858888f19350505050158015610813573d6000803e3d6000fd5b508060030154826108249190611646565b34111561088d573373ffffffffffffffffffffffffffffffffffffffff166108fc8260030154846108559190611646565b346108609190611771565b9081150290604051600060405180830381858888f1935050505015801561088b573d6000803e3d6000fd5b505b827f4c33b666068bf20ca1f4ca9e365c153d08c03312446b981f09fb6cb3a39e06cd338484600301546040516108c593929190611598565b60405180910390a2506108d66112ac565b5050565b60035481565b816005600085815260200190815260200160002060003373ffffffffffffffffffffffffffffffffffffffff1673ffffffffffffffffffffffffffffffffffffffff168152602001908152602001600020541015610973576040517f08c379a000000000000000000000000000000000000000000000000000000000815260040161096a90611825565b60405180910390fd5b816005600085815260200190815260200160002060003373ffffffffffffffffffffffffffffffffffffffff1673ffffffffffffffffffffffffffffffffffffffff16815260200190815260200160002060008282546109d39190611771565b925050819055506040518060a001604052808481526020013373ffffffffffffffffffffffffffffffffffffffff168152602001838152602001828152602001600115158152506006600060035481526020019081526020016000206000820151816000015560208201518160010160006101000a81548173ffffffffffffffffffffffffffffffffffffffff021916908373ffffffffffffffffffffffffffffffffffffffff160217905550604082015181600201556060820151816003015560808201518160040160006101000a81548160ff0219169083151502179055509050506003547fb2c38ea1ade0bd432d904184401d899db69bc309c1028678f89143b644cc8eea848484604051610aed93929190611845565b60405180910390a260036000815480929190610b08906115fe565b9190505550505050565b6005602052816000526040600020602052806000526040600020600091509150505481565b60066020528060005260406000206000915090508060000154908060010160009054906101000a900473ffffffffffffffffffffffffffffffffffffffff16908060020154908060030154908060040160009054906101000a900460ff16905085565b610ba2611266565b60006004600084815260200190815260200160002090508060030160149054906101000a900460ff168015610bd75750600082115b610c16576040517f08c379a0000000000000000000000000000000000000000000000000000000008152600401610c0d906116e5565b60405180910390fd5b80600201548160010154610c2a9190611771565b821115610c6c576040517f08c379a0000000000000000000000000000000000000000000000000000000008152600401610c63906118c8565b60405180910390fd5b806000015482610c7c9190611646565b341015610cbe576040517f08c379a0000000000000000000000000000000000000000000000000000000008152600401610cb590611751565b60405180910390fd5b81816002016000828254610cd291906117a5565b92505081905550816005600085815260200190815260200160002060003373ffffffffffffffffffffffffffffffffffffffff1673ffffffffffffffffffffffffffffffffffffffff1681526020019081526020016000206000828254610d3991906117a5565b925050819055508060030160009054906101000a900473ffffffffffffffffffffffffffffffffffffffff1673ffffffffffffffffffffffffffffffffffffffff166108fc826000015484610d8e9190611646565b9081150290604051600060405180830381858888f19350505050158015610db9573d6000803e3d6000fd5b50806000015482610dca9190611646565b341115610e33573373ffffffffffffffffffffffffffffffffffffffff166108fc826000015484610dfb9190611646565b34610e069190611771565b9081150290604051600060405180830381858888f19350505050158015610e31573d6000803e3d6000fd5b505b827fce81571c08c76465bdf390ad1abe80af8c51c6c4566e3485f9395f13d5ad63283384846000015486610e679190611646565b604051610e7693929190611598565b60405180910390a250610e876112ac565b5050565b600080600760008481526020019081526020016000205411610ec3576004600083815260200190815260200160002060000154610ed8565b60076000838152602001908152602001600020545b9050919050565b60006006600083815260200190815260200160002090503373ffffffffffffffffffffffffffffffffffffffff168160010160009054906101000a900473ffffffffffffffffffffffffffffffffffffffff1673ffffffffffffffffffffffffffffffffffffffff16148015610f6357508060040160009054906101000a900460ff165b610fa2576040517f08c379a0000000000000000000000000000000000000000000000000000000008152600401610f9990611934565b60405180910390fd5b60008160040160006101000a81548160ff0219169083151502179055508060020154600560008360000154815260200190815260200160002060003373ffffffffffffffffffffffffffffffffffffffff1673ffffffffffffffffffffffffffffffffffffffff168152602001908152602001600020600082825461102791906117a5565b925050819055505050565b61103a61111b565b600073ffffffffffffffffffffffffffffffffffffffff168173ffffffffffffffffffffffffffffffffffffffff16036110ac5760006040517f1e4fbdf70000000000000000000000000000000000000000000000000000000081526004016110a391906113d0565b60405180910390fd5b6110b5816111a2565b50565b60046020528060005260406000206000915090508060000154908060010154908060020154908060030160009054906101000a900473ffffffffffffffffffffffffffffffffffffffff16908060030160149054906101000a900460ff16905085565b6111236112b5565b73ffffffffffffffffffffffffffffffffffffffff166111416105cf565b73ffffffffffffffffffffffffffffffffffffffff16146111a0576111646112b5565b6040517f118cdaa700000000000000000000000000000000000000000000000000000000815260040161119791906113d0565b60405180910390fd5b565b60008060009054906101000a900473ffffffffffffffffffffffffffffffffffffffff169050816000806101000a81548173ffffffffffffffffffffffffffffffffffffffff021916908373ffffffffffffffffffffffffffffffffffffffff1602179055508173ffffffffffffffffffffffffffffffffffffffff168173ffffffffffffffffffffffffffffffffffffffff167f8be0079c531659141344cd1fd0a4f28419497f9722a3daafe3b4186f6b6457e060405160405180910390a35050565b6002600154036112a2576040517f3ee5aeb500000000000000000000000000000000000000000000000000000000815260040160405180910390fd5b6002600181905550565b60018081905550565b600033905090565b600080fd5b6000819050919050565b6112d5816112c2565b81146112e057600080fd5b50565b6000813590506112f2816112cc565b92915050565b60006020828403121561130e5761130d6112bd565b5b600061131c848285016112e3565b91505092915050565b61132e816112c2565b82525050565b60006020820190506113496000830184611325565b92915050565b60008060408385031215611366576113656112bd565b5b6000611374858286016112e3565b9250506020611385858286016112e3565b9150509250929050565b600073ffffffffffffffffffffffffffffffffffffffff82169050919050565b60006113ba8261138f565b9050919050565b6113ca816113af565b82525050565b60006020820190506113e560008301846113c1565b92915050565b600080600060608486031215611404576114036112bd565b5b6000611412868287016112e3565b9350506020611423868287016112e3565b9250506040611434868287016112e3565b9150509250925092565b611447816113af565b811461145257600080fd5b50565b6000813590506114648161143e565b92915050565b60008060408385031215611481576114806112bd565b5b600061148f858286016112e3565b92505060206114a085828601611455565b9150509250929050565b60008115159050919050565b6114bf816114aa565b82525050565b600060a0820190506114da6000830188611325565b6114e760208301876113c1565b6114f46040830186611325565b6115016060830185611325565b61150e60808301846114b6565b9695505050505050565b60006020828403121561152e5761152d6112bd565b5b600061153c84828501611455565b91505092915050565b600060a08201905061155a6000830188611325565b6115676020830187611325565b6115746040830186611325565b61158160608301856113c1565b61158e60808301846114b6565b9695505050505050565b60006060820190506115ad60008301866113c1565b6115ba6020830185611325565b6115c76040830184611325565b949350505050565b7f4e487b7100000000000000000000000000000000000000000000000000000000600052601160045260246000fd5b6000611609826112c2565b91507fffffffffffffffffffffffffffffffffffffffffffffffffffffffffffffffff820361163b5761163a6115cf565b5b600182019050919050565b6000611651826112c2565b915061165c836112c2565b925082820261166a816112c2565b91508282048414831517611681576116806115cf565b5b5092915050565b600082825260208201905092915050565b7f496e76616c696400000000000000000000000000000000000000000000000000600082015250565b60006116cf600783611688565b91506116da82611699565b602082019050919050565b600060208201905081810360008301526116fe816116c2565b9050919050565b7f4c6f77207061796d656e74000000000000000000000000000000000000000000600082015250565b600061173b600b83611688565b915061174682611705565b602082019050919050565b6000602082019050818103600083015261176a8161172e565b9050919050565b600061177c826112c2565b9150611787836112c2565b925082820390508181111561179f5761179e6115cf565b5b92915050565b60006117b0826112c2565b91506117bb836112c2565b92508282019050808211156117d3576117d26115cf565b5b92915050565b7f4e6f7420656e6f75676820736861726573000000000000000000000000000000600082015250565b600061180f601183611688565b915061181a826117d9565b602082019050919050565b6000602082019050818103600083015261183e81611802565b9050919050565b600060608201905061185a6000830186611325565b6118676020830185611325565b6118746040830184611325565b949350505050565b7f4e6f7420656e6f75676800000000000000000000000000000000000000000000600082015250565b60006118b2600a83611688565b91506118bd8261187c565b602082019050919050565b600060208201905081810360008301526118e1816118a5565b9050919050565b7f43616e6e6f742063616e63656c00000000000000000000000000000000000000600082015250565b600061191e600d83611688565b9150611929826118e8565b602082019050919050565b6000602082019050818103600083015261194d81611911565b905091905056fea2646970667358221220078adf664ab51d481dccc6860516fcd9cf8059c1cc07fa37585b567c70e138cc64736f6c63430008140033",
  "linkReferences": {},
  "deployedLinkReferences": {}
}